{
  "contractName": "LetterOfCredit",
  "abi": [
    {
      "constant": false,
      "inputs": [
        {
          "name": "refNum",
          "type": "string"
        },
        {
          "name": "BOLHash",
          "type": "string"
        }
      ],
      "name": "setBOL",
      "outputs": [
        {
          "name": "set",
          "type": "bool"
        }
      ],
      "payable": false,
      "stateMutability": "nonpayable",
      "type": "function"
    },
    {
      "constant": false,
      "inputs": [
        {
          "name": "refNum",
          "type": "string"
        }
      ],
      "name": "getStatus",
      "outputs": [
        {
          "name": "",
          "type": "string"
        }
      ],
      "payable": false,
      "stateMutability": "nonpayable",
      "type": "function"
    },
    {
      "constant": false,
      "inputs": [
        {
          "name": "refNum",
          "type": "string"
        }
      ],
      "name": "getBOL",
      "outputs": [
        {
          "name": "",
          "type": "string"
        }
      ],
      "payable": false,
      "stateMutability": "nonpayable",
      "type": "function"
    },
    {
      "constant": false,
      "inputs": [
        {
          "name": "refNum",
          "type": "string"
        },
        {
          "name": "contractJson",
          "type": "string"
        }
      ],
      "name": "createLC",
      "outputs": [
        {
          "name": "set",
          "type": "bool"
        }
      ],
      "payable": false,
      "stateMutability": "nonpayable",
      "type": "function"
    },
    {
      "constant": false,
      "inputs": [
        {
          "name": "refNum",
          "type": "string"
        }
      ],
      "name": "getAmendments",
      "outputs": [
        {
          "name": "",
          "type": "string"
        }
      ],
      "payable": false,
      "stateMutability": "nonpayable",
      "type": "function"
    },
    {
      "constant": false,
      "inputs": [
        {
          "name": "refNum",
          "type": "string"
        },
        {
          "name": "BOEHash",
          "type": "string"
        }
      ],
      "name": "setBOE",
      "outputs": [
        {
          "name": "set",
          "type": "bool"
        }
      ],
      "payable": false,
      "stateMutability": "nonpayable",
      "type": "function"
    },
    {
      "constant": false,
      "inputs": [
        {
          "name": "refNum",
          "type": "string"
        }
      ],
      "name": "getBOE",
      "outputs": [
        {
          "name": "",
          "type": "string"
        }
      ],
      "payable": false,
      "stateMutability": "nonpayable",
      "type": "function"
    },
    {
      "constant": false,
      "inputs": [
        {
          "name": "refNum",
          "type": "string"
        }
      ],
      "name": "getLC",
      "outputs": [
        {
          "name": "",
          "type": "string"
        }
      ],
      "payable": false,
      "stateMutability": "nonpayable",
      "type": "function"
    },
    {
      "constant": false,
      "inputs": [
        {
          "name": "refNum",
          "type": "string"
        },
        {
          "name": "stat",
          "type": "string"
        }
      ],
      "name": "setStatus",
      "outputs": [
        {
          "name": "changed",
          "type": "bool"
        }
      ],
      "payable": false,
      "stateMutability": "nonpayable",
      "type": "function"
    },
    {
      "constant": false,
      "inputs": [
        {
          "name": "refNum",
          "type": "string"
        },
        {
          "name": "amendmentReq",
          "type": "string"
        }
      ],
      "name": "amendLC",
      "outputs": [
        {
          "name": "changed",
          "type": "bool"
        }
      ],
      "payable": false,
      "stateMutability": "nonpayable",
      "type": "function"
    },
    {
      "constant": false,
      "inputs": [
        {
          "name": "refNum",
          "type": "string"
        },
        {
          "name": "contractJson",
          "type": "string"
        }
      ],
      "name": "modifyLC",
      "outputs": [
        {
          "name": "set",
          "type": "bool"
        }
      ],
      "payable": false,
      "stateMutability": "nonpayable",
      "type": "function"
    },
    {
      "anonymous": false,
      "inputs": [
        {
          "indexed": false,
          "name": "refNum",
          "type": "string"
        },
        {
          "indexed": false,
          "name": "contractValues",
          "type": "string"
        }
      ],
      "name": "LCCreated",
      "type": "event"
    },
    {
      "anonymous": false,
      "inputs": [
        {
          "indexed": false,
          "name": "refNum",
          "type": "string"
        },
        {
          "indexed": false,
          "name": "contractValues",
          "type": "string"
        }
      ],
      "name": "LCModified",
      "type": "event"
    },
    {
      "anonymous": false,
      "inputs": [
        {
          "indexed": false,
          "name": "refNum",
          "type": "string"
        },
        {
          "indexed": false,
          "name": "contractStatus",
          "type": "string"
        }
      ],
      "name": "StatusChanged",
      "type": "event"
    },
    {
      "anonymous": false,
      "inputs": [
        {
          "indexed": false,
          "name": "refNum",
          "type": "string"
        },
        {
          "indexed": false,
          "name": "contractDocuments",
          "type": "string"
        }
      ],
      "name": "DocumentsModified",
      "type": "event"
    },
    {
      "anonymous": false,
      "inputs": [
        {
          "indexed": false,
          "name": "refNum",
          "type": "string"
        },
        {
          "indexed": false,
          "name": "amendValues",
          "type": "string"
        }
      ],
      "name": "AmendmentsMade",
      "type": "event"
    }
  ],
  "bytecode": "0x6060604052341561000f57600080fd5b6119b58061001e6000396000f3006060604052600436106100af576000357c0100000000000000000000000000000000000000000000000000000000900463ffffffff16806304ce9499146100b457806322b05ed21461016c578063389344861461024257806338b8cfc7146103185780637385d7d8146103d05780637b7805ca146104a65780638b4b6f0d1461055e578063a8a490c314610634578063c55900331461070a578063c78febd5146107c2578063d5380c721461087a575b600080fd5b34156100bf57600080fd5b610152600480803590602001908201803590602001908080601f0160208091040260200160405190810160405280939291908181526020018383808284378201915050505050509190803590602001908201803590602001908080601f01602080910402602001604051908101604052809392919081815260200183838082843782019150505050505091905050610932565b604051808215151515815260200191505060405180910390f35b341561017757600080fd5b6101c7600480803590602001908201803590602001908080601f01602080910402602001604051908101604052809392919081815260200183838082843782019150505050505091905050610aca565b6040518080602001828103825283818151815260200191508051906020019080838360005b838110156102075780820151818401526020810190506101ec565b50505050905090810190601f1680156102345780820380516001836020036101000a031916815260200191505b509250505060405180910390f35b341561024d57600080fd5b61029d600480803590602001908201803590602001908080601f01602080910402602001604051908101604052809392919081815260200183838082843782019150505050505091905050610bdd565b6040518080602001828103825283818151815260200191508051906020019080838360005b838110156102dd5780820151818401526020810190506102c2565b50505050905090810190601f16801561030a5780820380516001836020036101000a031916815260200191505b509250505060405180910390f35b341561032357600080fd5b6103b6600480803590602001908201803590602001908080601f0160208091040260200160405190810160405280939291908181526020018383808284378201915050505050509190803590602001908201803590602001908080601f01602080910402602001604051908101604052809392919081815260200183838082843782019150505050505091905050610cf3565b604051808215151515815260200191505060405180910390f35b34156103db57600080fd5b61042b600480803590602001908201803590602001908080601f01602080910402602001604051908101604052809392919081815260200183838082843782019150505050505091905050610f3d565b6040518080602001828103825283818151815260200191508051906020019080838360005b8381101561046b578082015181840152602081019050610450565b50505050905090810190601f1680156104985780820380516001836020036101000a031916815260200191505b509250505060405180910390f35b34156104b157600080fd5b610544600480803590602001908201803590602001908080601f0160208091040260200160405190810160405280939291908181526020018383808284378201915050505050509190803590602001908201803590602001908080601f01602080910402602001604051908101604052809392919081815260200183838082843782019150505050505091905050611050565b604051808215151515815260200191505060405180910390f35b341561056957600080fd5b6105b9600480803590602001908201803590602001908080601f016020809104026020016040519081016040528093929190818152602001838380828437820191505050505050919050506111e8565b6040518080602001828103825283818151815260200191508051906020019080838360005b838110156105f95780820151818401526020810190506105de565b50505050905090810190601f1680156106265780820380516001836020036101000a031916815260200191505b509250505060405180910390f35b341561063f57600080fd5b61068f600480803590602001908201803590602001908080601f016020809104026020016040519081016040528093929190818152602001838380828437820191505050505050919050506112fe565b6040518080602001828103825283818151815260200191508051906020019080838360005b838110156106cf5780820151818401526020810190506106b4565b50505050905090810190601f1680156106fc5780820380516001836020036101000a031916815260200191505b509250505060405180910390f35b341561071557600080fd5b6107a8600480803590602001908201803590602001908080601f0160208091040260200160405190810160405280939291908181526020018383808284378201915050505050509190803590602001908201803590602001908080601f01602080910402602001604051908101604052809392919081815260200183838082843782019150505050505091905050611411565b604051808215151515815260200191505060405180910390f35b34156107cd57600080fd5b610860600480803590602001908201803590602001908080601f0160208091040260200160405190810160405280939291908181526020018383808284378201915050505050509190803590602001908201803590602001908080601f016020809104026020016040519081016040528093929190818152602001838380828437820191505050505050919050506115a6565b604051808215151515815260200191505060405180910390f35b341561088557600080fd5b610918600480803590602001908201803590602001908080601f0160208091040260200160405190810160405280939291908181526020018383808284378201915050505050509190803590602001908201803590602001908080601f0160208091040260200160405190810160405280939291908181526020018383808284378201915050505050509190505061173b565b604051808215151515815260200191505060405180910390f35b6000816002846040518082805190602001908083835b60208310151561096d5780518252602082019150602081019050602083039250610948565b6001836020036101000a038019825116818451168082178552505050505050905001915050908152602001604051809103902060010190805190602001906109b69291906118d0565b507f018173a7e1e20967f5dce1b4b1c56864227e313bf810126848ff9ad42e8927c68383604051808060200180602001838103835285818151815260200191508051906020019080838360005b83811015610a1e578082015181840152602081019050610a03565b50505050905090810190601f168015610a4b5780820380516001836020036101000a031916815260200191505b50838103825284818151815260200191508051906020019080838360005b83811015610a84578082015181840152602081019050610a69565b50505050905090810190601f168015610ab15780820380516001836020036101000a031916815260200191505b5094505050505060405180910390a16001905092915050565b610ad2611950565b6001826040518082805190602001908083835b602083101515610b0a5780518252602082019150602081019050602083039250610ae5565b6001836020036101000a03801982511681845116808217855250505050505090500191505090815260200160405180910390208054600181600116156101000203166002900480601f016020809104026020016040519081016040528092919081815260200182805460018160011615610100020316600290048015610bd15780601f10610ba657610100808354040283529160200191610bd1565b820191906000526020600020905b815481529060010190602001808311610bb457829003601f168201915b50505050509050919050565b610be5611950565b6002826040518082805190602001908083835b602083101515610c1d5780518252602082019150602081019050602083039250610bf8565b6001836020036101000a03801982511681845116808217855250505050505090500191505090815260200160405180910390206001018054600181600116156101000203166002900480601f016020809104026020016040519081016040528092919081815260200182805460018160011615610100020316600290048015610ce75780601f10610cbc57610100808354040283529160200191610ce7565b820191906000526020600020905b815481529060010190602001808311610cca57829003601f168201915b50505050509050919050565b6000816000846040518082805190602001908083835b602083101515610d2e5780518252602082019150602081019050602083039250610d09565b6001836020036101000a03801982511681845116808217855250505050505090500191505090815260200160405180910390209080519060200190610d749291906118d0565b506040805190810160405280600781526020017f70656e64696e67000000000000000000000000000000000000000000000000008152506001846040518082805190602001908083835b602083101515610de35780518252602082019150602081019050602083039250610dbe565b6001836020036101000a03801982511681845116808217855250505050505090500191505090815260200160405180910390209080519060200190610e299291906118d0565b507fe1818f16878559f131382edac6d0a5aae66df2bcccc50a7325993134fe739f7a8383604051808060200180602001838103835285818151815260200191508051906020019080838360005b83811015610e91578082015181840152602081019050610e76565b50505050905090810190601f168015610ebe5780820380516001836020036101000a031916815260200191505b50838103825284818151815260200191508051906020019080838360005b83811015610ef7578082015181840152602081019050610edc565b50505050905090810190601f168015610f245780820380516001836020036101000a031916815260200191505b5094505050505060405180910390a16001905092915050565b610f45611950565b6003826040518082805190602001908083835b602083101515610f7d5780518252602082019150602081019050602083039250610f58565b6001836020036101000a03801982511681845116808217855250505050505090500191505090815260200160405180910390208054600181600116156101000203166002900480601f0160208091040260200160405190810160405280929190818152602001828054600181600116156101000203166002900480156110445780601f1061101957610100808354040283529160200191611044565b820191906000526020600020905b81548152906001019060200180831161102757829003601f168201915b50505050509050919050565b6000816002846040518082805190602001908083835b60208310151561108b5780518252602082019150602081019050602083039250611066565b6001836020036101000a038019825116818451168082178552505050505050905001915050908152602001604051809103902060000190805190602001906110d49291906118d0565b507f018173a7e1e20967f5dce1b4b1c56864227e313bf810126848ff9ad42e8927c68383604051808060200180602001838103835285818151815260200191508051906020019080838360005b8381101561113c578082015181840152602081019050611121565b50505050905090810190601f1680156111695780820380516001836020036101000a031916815260200191505b50838103825284818151815260200191508051906020019080838360005b838110156111a2578082015181840152602081019050611187565b50505050905090810190601f1680156111cf5780820380516001836020036101000a031916815260200191505b5094505050505060405180910390a16001905092915050565b6111f0611950565b6002826040518082805190602001908083835b6020831015156112285780518252602082019150602081019050602083039250611203565b6001836020036101000a03801982511681845116808217855250505050505090500191505090815260200160405180910390206000018054600181600116156101000203166002900480601f0160208091040260200160405190810160405280929190818152602001828054600181600116156101000203166002900480156112f25780601f106112c7576101008083540402835291602001916112f2565b820191906000526020600020905b8154815290600101906020018083116112d557829003601f168201915b50505050509050919050565b611306611950565b6000826040518082805190602001908083835b60208310151561133e5780518252602082019150602081019050602083039250611319565b6001836020036101000a03801982511681845116808217855250505050505090500191505090815260200160405180910390208054600181600116156101000203166002900480601f0160208091040260200160405190810160405280929190818152602001828054600181600116156101000203166002900480156114055780601f106113da57610100808354040283529160200191611405565b820191906000526020600020905b8154815290600101906020018083116113e857829003601f168201915b50505050509050919050565b6000816001846040518082805190602001908083835b60208310151561144c5780518252602082019150602081019050602083039250611427565b6001836020036101000a038019825116818451168082178552505050505050905001915050908152602001604051809103902090805190602001906114929291906118d0565b507f34196bdb17643c131ad4d20f53a4762def8f51af723e34144d6dc7ea01d30b138383604051808060200180602001838103835285818151815260200191508051906020019080838360005b838110156114fa5780820151818401526020810190506114df565b50505050905090810190601f1680156115275780820380516001836020036101000a031916815260200191505b50838103825284818151815260200191508051906020019080838360005b83811015611560578082015181840152602081019050611545565b50505050905090810190601f16801561158d5780820380516001836020036101000a031916815260200191505b5094505050505060405180910390a16001905092915050565b6000816003846040518082805190602001908083835b6020831015156115e157805182526020820191506020810190506020830392506115bc565b6001836020036101000a038019825116818451168082178552505050505050905001915050908152602001604051809103902090805190602001906116279291906118d0565b507f99601a164a4d4edbf4aeaffb115143fa04110f6760fc717e3801843ad3227fed8383604051808060200180602001838103835285818151815260200191508051906020019080838360005b8381101561168f578082015181840152602081019050611674565b50505050905090810190601f1680156116bc5780820380516001836020036101000a031916815260200191505b50838103825284818151815260200191508051906020019080838360005b838110156116f55780820151818401526020810190506116da565b50505050905090810190601f1680156117225780820380516001836020036101000a031916815260200191505b5094505050505060405180910390a16001905092915050565b6000816000846040518082805190602001908083835b6020831015156117765780518252602082019150602081019050602083039250611751565b6001836020036101000a038019825116818451168082178552505050505050905001915050908152602001604051809103902090805190602001906117bc9291906118d0565b507f04d9b0fbc9520eaf2a4ab04c9b370e532d2dda8e907d36a4a4b87e0f5508bde58383604051808060200180602001838103835285818151815260200191508051906020019080838360005b83811015611824578082015181840152602081019050611809565b50505050905090810190601f1680156118515780820380516001836020036101000a031916815260200191505b50838103825284818151815260200191508051906020019080838360005b8381101561188a57808201518184015260208101905061186f565b50505050905090810190601f1680156118b75780820380516001836020036101000a031916815260200191505b5094505050505060405180910390a16001905092915050565b828054600181600116156101000203166002900490600052602060002090601f016020900481019282601f1061191157805160ff191683800117855561193f565b8280016001018555821561193f579182015b8281111561193e578251825591602001919060010190611923565b5b50905061194c9190611964565b5090565b602060405190810160405280600081525090565b61198691905b8082111561198257600081600090555060010161196a565b5090565b905600a165627a7a7230582010c635cd895451ac0da4ebe2b85a786dcf5435cf9d69051d1c38ced1c13844520029",
  "source": "pragma solidity ^0.4.11;\r\n\r\ncontract LetterOfCredit {\r\n\r\n\t//struct \r\n\tstruct Docs {\r\n\t\tstring billOfExchange;\r\n\t\tstring billOfLading;\r\n\t\tbool initialized;\r\n\t}\r\n\r\n\t//contract mappings\r\n\tmapping (string => string) contracts;\r\n\tmapping (string => string) status; \r\n\tmapping (string => Docs) documents;\r\n\tmapping (string => string) amendments; \r\n\r\n\r\n\r\n\t//events\r\n\tevent LCCreated(string refNum, string contractValues);\r\n\tevent LCModified(string refNum, string contractValues);\r\n\tevent StatusChanged(string refNum, string contractStatus);\r\n\tevent DocumentsModified(string refNum, string contractDocuments);\r\n\tevent AmendmentsMade(string refNum, string amendValues);\r\n\t// event amendContract(string refNum, string amendmentReq);\r\n\r\n\r\n\r\n\t//adding new lc\r\n\tfunction createLC(string refNum, string contractJson) returns(bool set) {\r\n\t\tcontracts[refNum] = contractJson;\r\n\t\tstatus[refNum] = \"pending\";\r\n\t\tLCCreated(refNum, contractJson);\r\n\t\treturn true;\r\n\t} \r\n\r\n\t//modifying lc\r\n\tfunction modifyLC(string refNum, string contractJson ) returns(bool set) {\r\n\t\tcontracts[refNum] = contractJson;\r\n\t\tLCModified(refNum, contractJson);\r\n\t\treturn true;\r\n\t}\r\n\r\n\t//set lc status\r\n\tfunction setStatus(string refNum, string stat ) returns(bool changed) {\r\n\t\tstatus[refNum] = stat;\r\n\t\tStatusChanged(refNum, stat);\r\n\t\treturn true;\r\n\t}\r\n\r\n\t//get lc\r\n\tfunction getLC(string refNum) returns(string) {\r\n\t\treturn contracts[refNum];\r\n\t}\r\n\r\n\t//get lc status\r\n\tfunction getStatus(string refNum) returns(string) {\r\n\t\treturn status[refNum]; \r\n\t}\r\n\r\n\t//get Amendments\r\n\tfunction getAmendments(string refNum) returns(string) {\r\n\t\treturn amendments[refNum];\r\n\t}\r\n\r\n\t//set Amendments\r\n\tfunction amendLC(string refNum, string amendmentReq) returns(bool changed) {\r\n\t\tamendments[refNum] = amendmentReq;\r\n\t\tAmendmentsMade(refNum, amendmentReq);\r\n\t\treturn true;\r\n\t}\r\n\r\n\t//get Bill of Exchange\r\n\tfunction getBOE(string refNum) returns(string) {\r\n\t\treturn documents[refNum].billOfExchange;\r\n\t}\r\n\r\n\t//set Bill of Exchange\r\n\tfunction setBOE(string refNum, string BOEHash) returns(bool set) {\r\n\t\tdocuments[refNum].billOfExchange = BOEHash;\r\n\t\tDocumentsModified(refNum, BOEHash);\r\n\t\treturn true;\r\n\t}\r\n\t\r\n\t//get Bill of Lading\r\n\tfunction getBOL(string refNum) returns(string) {\r\n\t\treturn documents[refNum].billOfLading;\r\n\t}\r\n\r\n\t//set Bill of Lading\r\n\tfunction setBOL(string refNum, string BOLHash) returns(bool set) {\r\n\t\tdocuments[refNum].billOfLading = BOLHash;\r\n\t\tDocumentsModified(refNum, BOLHash);\r\n\t\treturn true;\r\n\t}\r\n}\r\n",
  "sourcePath": "C:\\Users\\user\\Desktop\\ToffeeMint\\app\\0.TruffleApp\\contracts\\LetterOfCredit.sol",
  "compiler": {
    "name": "solc",
    "version": "0.4.18+commit.9cf6e910.Emscripten.clang"
  },
  "schemaVersion": "1.0.1",
  "updatedAt": "2018-01-27T06:42:11.656Z"
}