{
  "contractName": "LetterOfCredit",
  "abi": [
    {
      "constant": false,
      "inputs": [
        {
          "name": "refNum",
          "type": "string"
        },
        {
          "name": "BOLHash",
          "type": "string"
        }
      ],
      "name": "setBOL",
      "outputs": [
        {
          "name": "set",
          "type": "bool"
        }
      ],
      "payable": false,
      "stateMutability": "nonpayable",
      "type": "function"
    },
    {
      "constant": false,
      "inputs": [
        {
          "name": "refNum",
          "type": "string"
        }
      ],
      "name": "getStatus",
      "outputs": [
        {
          "name": "",
          "type": "string"
        }
      ],
      "payable": false,
      "stateMutability": "nonpayable",
      "type": "function"
    },
    {
      "constant": false,
      "inputs": [
        {
          "name": "refNum",
          "type": "string"
        }
      ],
      "name": "getBOL",
      "outputs": [
        {
          "name": "",
          "type": "string"
        }
      ],
      "payable": false,
      "stateMutability": "nonpayable",
      "type": "function"
    },
    {
      "constant": false,
      "inputs": [
        {
          "name": "refNum",
          "type": "string"
        },
        {
          "name": "contractJson",
          "type": "string"
        }
      ],
      "name": "createLC",
      "outputs": [
        {
          "name": "set",
          "type": "bool"
        }
      ],
      "payable": false,
      "stateMutability": "nonpayable",
      "type": "function"
    },
    {
      "constant": false,
      "inputs": [
        {
          "name": "refNum",
          "type": "string"
        },
        {
          "name": "hasReceipt",
          "type": "bool"
        }
      ],
      "name": "setTrustReceipt",
      "outputs": [
        {
          "name": "set",
          "type": "bool"
        }
      ],
      "payable": false,
      "stateMutability": "nonpayable",
      "type": "function"
    },
    {
      "constant": false,
      "inputs": [
        {
          "name": "refNum",
          "type": "string"
        }
      ],
      "name": "getInsurance",
      "outputs": [
        {
          "name": "",
          "type": "string"
        }
      ],
      "payable": false,
      "stateMutability": "nonpayable",
      "type": "function"
    },
    {
      "constant": false,
      "inputs": [
        {
          "name": "refNum",
          "type": "string"
        }
      ],
      "name": "getAmendments",
      "outputs": [
        {
          "name": "",
          "type": "string"
        }
      ],
      "payable": false,
      "stateMutability": "nonpayable",
      "type": "function"
    },
    {
      "constant": false,
      "inputs": [
        {
          "name": "refNum",
          "type": "string"
        },
        {
          "name": "BOEHash",
          "type": "string"
        }
      ],
      "name": "setBOE",
      "outputs": [
        {
          "name": "set",
          "type": "bool"
        }
      ],
      "payable": false,
      "stateMutability": "nonpayable",
      "type": "function"
    },
    {
      "constant": false,
      "inputs": [
        {
          "name": "refNum",
          "type": "string"
        }
      ],
      "name": "getBOE",
      "outputs": [
        {
          "name": "",
          "type": "string"
        }
      ],
      "payable": false,
      "stateMutability": "nonpayable",
      "type": "function"
    },
    {
      "constant": false,
      "inputs": [
        {
          "name": "refNum",
          "type": "string"
        }
      ],
      "name": "getLC",
      "outputs": [
        {
          "name": "",
          "type": "string"
        }
      ],
      "payable": false,
      "stateMutability": "nonpayable",
      "type": "function"
    },
    {
      "constant": false,
      "inputs": [
        {
          "name": "refNum",
          "type": "string"
        }
      ],
      "name": "getTrustReceipt",
      "outputs": [
        {
          "name": "",
          "type": "bool"
        }
      ],
      "payable": false,
      "stateMutability": "nonpayable",
      "type": "function"
    },
    {
      "constant": false,
      "inputs": [
        {
          "name": "refNum",
          "type": "string"
        },
        {
          "name": "stat",
          "type": "string"
        }
      ],
      "name": "setStatus",
      "outputs": [
        {
          "name": "changed",
          "type": "bool"
        }
      ],
      "payable": false,
      "stateMutability": "nonpayable",
      "type": "function"
    },
    {
      "constant": false,
      "inputs": [
        {
          "name": "refNum",
          "type": "string"
        },
        {
          "name": "amendmentReq",
          "type": "string"
        }
      ],
      "name": "amendLC",
      "outputs": [
        {
          "name": "changed",
          "type": "bool"
        }
      ],
      "payable": false,
      "stateMutability": "nonpayable",
      "type": "function"
    },
    {
      "constant": false,
      "inputs": [
        {
          "name": "refNum",
          "type": "string"
        },
        {
          "name": "contractJson",
          "type": "string"
        }
      ],
      "name": "modifyLC",
      "outputs": [
        {
          "name": "set",
          "type": "bool"
        }
      ],
      "payable": false,
      "stateMutability": "nonpayable",
      "type": "function"
    },
    {
      "constant": false,
      "inputs": [
        {
          "name": "refNum",
          "type": "string"
        },
        {
          "name": "insuranceString",
          "type": "string"
        }
      ],
      "name": "setInsurance",
      "outputs": [
        {
          "name": "set",
          "type": "bool"
        }
      ],
      "payable": false,
      "stateMutability": "nonpayable",
      "type": "function"
    },
    {
      "anonymous": false,
      "inputs": [
        {
          "indexed": false,
          "name": "refNum",
          "type": "string"
        },
        {
          "indexed": false,
          "name": "contractValues",
          "type": "string"
        }
      ],
      "name": "LCCreated",
      "type": "event"
    },
    {
      "anonymous": false,
      "inputs": [
        {
          "indexed": false,
          "name": "refNum",
          "type": "string"
        },
        {
          "indexed": false,
          "name": "contractValues",
          "type": "string"
        }
      ],
      "name": "LCModified",
      "type": "event"
    },
    {
      "anonymous": false,
      "inputs": [
        {
          "indexed": false,
          "name": "refNum",
          "type": "string"
        },
        {
          "indexed": false,
          "name": "contractStatus",
          "type": "string"
        }
      ],
      "name": "StatusChanged",
      "type": "event"
    },
    {
      "anonymous": false,
      "inputs": [
        {
          "indexed": false,
          "name": "refNum",
          "type": "string"
        },
        {
          "indexed": false,
          "name": "contractDocuments",
          "type": "string"
        }
      ],
      "name": "DocumentsModified",
      "type": "event"
    },
    {
      "anonymous": false,
      "inputs": [
        {
          "indexed": false,
          "name": "refNum",
          "type": "string"
        },
        {
          "indexed": false,
          "name": "amendValues",
          "type": "string"
        }
      ],
      "name": "AmendmentsMade",
      "type": "event"
    }
  ],
  "bytecode": "0x6060604052341561000f57600080fd5b611f148061001e6000396000f3006060604052600436106100db576000357c0100000000000000000000000000000000000000000000000000000000900463ffffffff16806304ce9499146100e057806322b05ed214610198578063389344861461026e57806338b8cfc71461034457806342a0dceb146103fc5780635870c4171461047c5780637385d7d8146105525780637b7805ca146106285780638b4b6f0d146106e0578063a8a490c3146107b6578063c47b958c1461088c578063c559003314610901578063c78febd5146109b9578063d5380c7214610a71578063fb58f47814610b29575b600080fd5b34156100eb57600080fd5b61017e600480803590602001908201803590602001908080601f0160208091040260200160405190810160405280939291908181526020018383808284378201915050505050509190803590602001908201803590602001908080601f01602080910402602001604051908101604052809392919081815260200183838082843782019150505050505091905050610be1565b604051808215151515815260200191505060405180910390f35b34156101a357600080fd5b6101f3600480803590602001908201803590602001908080601f01602080910402602001604051908101604052809392919081815260200183838082843782019150505050505091905050610d79565b6040518080602001828103825283818151815260200191508051906020019080838360005b83811015610233578082015181840152602081019050610218565b50505050905090810190601f1680156102605780820380516001836020036101000a031916815260200191505b509250505060405180910390f35b341561027957600080fd5b6102c9600480803590602001908201803590602001908080601f01602080910402602001604051908101604052809392919081815260200183838082843782019150505050505091905050610e8c565b6040518080602001828103825283818151815260200191508051906020019080838360005b838110156103095780820151818401526020810190506102ee565b50505050905090810190601f1680156103365780820380516001836020036101000a031916815260200191505b509250505060405180910390f35b341561034f57600080fd5b6103e2600480803590602001908201803590602001908080601f0160208091040260200160405190810160405280939291908181526020018383808284378201915050505050509190803590602001908201803590602001908080601f01602080910402602001604051908101604052809392919081815260200183838082843782019150505050505091905050610fa2565b604051808215151515815260200191505060405180910390f35b341561040757600080fd5b610462600480803590602001908201803590602001908080601f0160208091040260200160405190810160405280939291908181526020018383808284378201915050505050509190803515159060200190919050506111ec565b604051808215151515815260200191505060405180910390f35b341561048757600080fd5b6104d7600480803590602001908201803590602001908080601f0160208091040260200160405190810160405280939291908181526020018383808284378201915050505050509190505061127b565b6040518080602001828103825283818151815260200191508051906020019080838360005b838110156105175780820151818401526020810190506104fc565b50505050905090810190601f1680156105445780820380516001836020036101000a031916815260200191505b509250505060405180910390f35b341561055d57600080fd5b6105ad600480803590602001908201803590602001908080601f0160208091040260200160405190810160405280939291908181526020018383808284378201915050505050509190505061138e565b6040518080602001828103825283818151815260200191508051906020019080838360005b838110156105ed5780820151818401526020810190506105d2565b50505050905090810190601f16801561061a5780820380516001836020036101000a031916815260200191505b509250505060405180910390f35b341561063357600080fd5b6106c6600480803590602001908201803590602001908080601f0160208091040260200160405190810160405280939291908181526020018383808284378201915050505050509190803590602001908201803590602001908080601f016020809104026020016040519081016040528093929190818152602001838380828437820191505050505050919050506114a1565b604051808215151515815260200191505060405180910390f35b34156106eb57600080fd5b61073b600480803590602001908201803590602001908080601f01602080910402602001604051908101604052809392919081815260200183838082843782019150505050505091905050611639565b6040518080602001828103825283818151815260200191508051906020019080838360005b8381101561077b578082015181840152602081019050610760565b50505050905090810190601f1680156107a85780820380516001836020036101000a031916815260200191505b509250505060405180910390f35b34156107c157600080fd5b610811600480803590602001908201803590602001908080601f0160208091040260200160405190810160405280939291908181526020018383808284378201915050505050509190505061174f565b6040518080602001828103825283818151815260200191508051906020019080838360005b83811015610851578082015181840152602081019050610836565b50505050905090810190601f16801561087e5780820380516001836020036101000a031916815260200191505b509250505060405180910390f35b341561089757600080fd5b6108e7600480803590602001908201803590602001908080601f01602080910402602001604051908101604052809392919081815260200183838082843782019150505050505091905050611862565b604051808215151515815260200191505060405180910390f35b341561090c57600080fd5b61099f600480803590602001908201803590602001908080601f0160208091040260200160405190810160405280939291908181526020018383808284378201915050505050509190803590602001908201803590602001908080601f016020809104026020016040519081016040528093929190818152602001838380828437820191505050505050919050506118e4565b604051808215151515815260200191505060405180910390f35b34156109c457600080fd5b610a57600480803590602001908201803590602001908080601f0160208091040260200160405190810160405280939291908181526020018383808284378201915050505050509190803590602001908201803590602001908080601f01602080910402602001604051908101604052809392919081815260200183838082843782019150505050505091905050611a79565b604051808215151515815260200191505060405180910390f35b3415610a7c57600080fd5b610b0f600480803590602001908201803590602001908080601f0160208091040260200160405190810160405280939291908181526020018383808284378201915050505050509190803590602001908201803590602001908080601f01602080910402602001604051908101604052809392919081815260200183838082843782019150505050505091905050611c0e565b604051808215151515815260200191505060405180910390f35b3415610b3457600080fd5b610bc7600480803590602001908201803590602001908080601f0160208091040260200160405190810160405280939291908181526020018383808284378201915050505050509190803590602001908201803590602001908080601f01602080910402602001604051908101604052809392919081815260200183838082843782019150505050505091905050611da3565b604051808215151515815260200191505060405180910390f35b6000816002846040518082805190602001908083835b602083101515610c1c5780518252602082019150602081019050602083039250610bf7565b6001836020036101000a03801982511681845116808217855250505050505090500191505090815260200160405180910390206001019080519060200190610c65929190611e2f565b507f018173a7e1e20967f5dce1b4b1c56864227e313bf810126848ff9ad42e8927c68383604051808060200180602001838103835285818151815260200191508051906020019080838360005b83811015610ccd578082015181840152602081019050610cb2565b50505050905090810190601f168015610cfa5780820380516001836020036101000a031916815260200191505b50838103825284818151815260200191508051906020019080838360005b83811015610d33578082015181840152602081019050610d18565b50505050905090810190601f168015610d605780820380516001836020036101000a031916815260200191505b5094505050505060405180910390a16001905092915050565b610d81611eaf565b6001826040518082805190602001908083835b602083101515610db95780518252602082019150602081019050602083039250610d94565b6001836020036101000a03801982511681845116808217855250505050505090500191505090815260200160405180910390208054600181600116156101000203166002900480601f016020809104026020016040519081016040528092919081815260200182805460018160011615610100020316600290048015610e805780601f10610e5557610100808354040283529160200191610e80565b820191906000526020600020905b815481529060010190602001808311610e6357829003601f168201915b50505050509050919050565b610e94611eaf565b6002826040518082805190602001908083835b602083101515610ecc5780518252602082019150602081019050602083039250610ea7565b6001836020036101000a03801982511681845116808217855250505050505090500191505090815260200160405180910390206001018054600181600116156101000203166002900480601f016020809104026020016040519081016040528092919081815260200182805460018160011615610100020316600290048015610f965780601f10610f6b57610100808354040283529160200191610f96565b820191906000526020600020905b815481529060010190602001808311610f7957829003601f168201915b50505050509050919050565b6000816000846040518082805190602001908083835b602083101515610fdd5780518252602082019150602081019050602083039250610fb8565b6001836020036101000a03801982511681845116808217855250505050505090500191505090815260200160405180910390209080519060200190611023929190611e2f565b506040805190810160405280600781526020017f70656e64696e67000000000000000000000000000000000000000000000000008152506001846040518082805190602001908083835b602083101515611092578051825260208201915060208101905060208303925061106d565b6001836020036101000a038019825116818451168082178552505050505050905001915050908152602001604051809103902090805190602001906110d8929190611e2f565b507fe1818f16878559f131382edac6d0a5aae66df2bcccc50a7325993134fe739f7a8383604051808060200180602001838103835285818151815260200191508051906020019080838360005b83811015611140578082015181840152602081019050611125565b50505050905090810190601f16801561116d5780820380516001836020036101000a031916815260200191505b50838103825284818151815260200191508051906020019080838360005b838110156111a657808201518184015260208101905061118b565b50505050905090810190601f1680156111d35780820380516001836020036101000a031916815260200191505b5094505050505060405180910390a16001905092915050565b6000816005846040518082805190602001908083835b6020831015156112275780518252602082019150602081019050602083039250611202565b6001836020036101000a038019825116818451168082178552505050505050905001915050908152602001604051809103902060006101000a81548160ff0219169083151502179055506001905092915050565b611283611eaf565b6004826040518082805190602001908083835b6020831015156112bb5780518252602082019150602081019050602083039250611296565b6001836020036101000a03801982511681845116808217855250505050505090500191505090815260200160405180910390208054600181600116156101000203166002900480601f0160208091040260200160405190810160405280929190818152602001828054600181600116156101000203166002900480156113825780601f1061135757610100808354040283529160200191611382565b820191906000526020600020905b81548152906001019060200180831161136557829003601f168201915b50505050509050919050565b611396611eaf565b6003826040518082805190602001908083835b6020831015156113ce57805182526020820191506020810190506020830392506113a9565b6001836020036101000a03801982511681845116808217855250505050505090500191505090815260200160405180910390208054600181600116156101000203166002900480601f0160208091040260200160405190810160405280929190818152602001828054600181600116156101000203166002900480156114955780601f1061146a57610100808354040283529160200191611495565b820191906000526020600020905b81548152906001019060200180831161147857829003601f168201915b50505050509050919050565b6000816002846040518082805190602001908083835b6020831015156114dc57805182526020820191506020810190506020830392506114b7565b6001836020036101000a03801982511681845116808217855250505050505090500191505090815260200160405180910390206000019080519060200190611525929190611e2f565b507f018173a7e1e20967f5dce1b4b1c56864227e313bf810126848ff9ad42e8927c68383604051808060200180602001838103835285818151815260200191508051906020019080838360005b8381101561158d578082015181840152602081019050611572565b50505050905090810190601f1680156115ba5780820380516001836020036101000a031916815260200191505b50838103825284818151815260200191508051906020019080838360005b838110156115f35780820151818401526020810190506115d8565b50505050905090810190601f1680156116205780820380516001836020036101000a031916815260200191505b5094505050505060405180910390a16001905092915050565b611641611eaf565b6002826040518082805190602001908083835b6020831015156116795780518252602082019150602081019050602083039250611654565b6001836020036101000a03801982511681845116808217855250505050505090500191505090815260200160405180910390206000018054600181600116156101000203166002900480601f0160208091040260200160405190810160405280929190818152602001828054600181600116156101000203166002900480156117435780601f1061171857610100808354040283529160200191611743565b820191906000526020600020905b81548152906001019060200180831161172657829003601f168201915b50505050509050919050565b611757611eaf565b6000826040518082805190602001908083835b60208310151561178f578051825260208201915060208101905060208303925061176a565b6001836020036101000a03801982511681845116808217855250505050505090500191505090815260200160405180910390208054600181600116156101000203166002900480601f0160208091040260200160405190810160405280929190818152602001828054600181600116156101000203166002900480156118565780601f1061182b57610100808354040283529160200191611856565b820191906000526020600020905b81548152906001019060200180831161183957829003601f168201915b50505050509050919050565b60006005826040518082805190602001908083835b60208310151561189c5780518252602082019150602081019050602083039250611877565b6001836020036101000a038019825116818451168082178552505050505050905001915050908152602001604051809103902060009054906101000a900460ff169050919050565b6000816001846040518082805190602001908083835b60208310151561191f57805182526020820191506020810190506020830392506118fa565b6001836020036101000a03801982511681845116808217855250505050505090500191505090815260200160405180910390209080519060200190611965929190611e2f565b507f34196bdb17643c131ad4d20f53a4762def8f51af723e34144d6dc7ea01d30b138383604051808060200180602001838103835285818151815260200191508051906020019080838360005b838110156119cd5780820151818401526020810190506119b2565b50505050905090810190601f1680156119fa5780820380516001836020036101000a031916815260200191505b50838103825284818151815260200191508051906020019080838360005b83811015611a33578082015181840152602081019050611a18565b50505050905090810190601f168015611a605780820380516001836020036101000a031916815260200191505b5094505050505060405180910390a16001905092915050565b6000816003846040518082805190602001908083835b602083101515611ab45780518252602082019150602081019050602083039250611a8f565b6001836020036101000a03801982511681845116808217855250505050505090500191505090815260200160405180910390209080519060200190611afa929190611e2f565b507f99601a164a4d4edbf4aeaffb115143fa04110f6760fc717e3801843ad3227fed8383604051808060200180602001838103835285818151815260200191508051906020019080838360005b83811015611b62578082015181840152602081019050611b47565b50505050905090810190601f168015611b8f5780820380516001836020036101000a031916815260200191505b50838103825284818151815260200191508051906020019080838360005b83811015611bc8578082015181840152602081019050611bad565b50505050905090810190601f168015611bf55780820380516001836020036101000a031916815260200191505b5094505050505060405180910390a16001905092915050565b6000816000846040518082805190602001908083835b602083101515611c495780518252602082019150602081019050602083039250611c24565b6001836020036101000a03801982511681845116808217855250505050505090500191505090815260200160405180910390209080519060200190611c8f929190611e2f565b507f04d9b0fbc9520eaf2a4ab04c9b370e532d2dda8e907d36a4a4b87e0f5508bde58383604051808060200180602001838103835285818151815260200191508051906020019080838360005b83811015611cf7578082015181840152602081019050611cdc565b50505050905090810190601f168015611d245780820380516001836020036101000a031916815260200191505b50838103825284818151815260200191508051906020019080838360005b83811015611d5d578082015181840152602081019050611d42565b50505050905090810190601f168015611d8a5780820380516001836020036101000a031916815260200191505b5094505050505060405180910390a16001905092915050565b6000816004846040518082805190602001908083835b602083101515611dde5780518252602082019150602081019050602083039250611db9565b6001836020036101000a03801982511681845116808217855250505050505090500191505090815260200160405180910390209080519060200190611e24929190611e2f565b506001905092915050565b828054600181600116156101000203166002900490600052602060002090601f016020900481019282601f10611e7057805160ff1916838001178555611e9e565b82800160010185558215611e9e579182015b82811115611e9d578251825591602001919060010190611e82565b5b509050611eab9190611ec3565b5090565b602060405190810160405280600081525090565b611ee591905b80821115611ee1576000816000905550600101611ec9565b5090565b905600a165627a7a7230582033877d3ce049382ef3eed37ee2a344b801acab2ce2e2582ec7e8f2b5c224ab380029",
  "source": "pragma solidity ^0.4.11;\r\n\r\ncontract LetterOfCredit {\r\n\r\n\t//struct \r\n\tstruct Docs {\r\n\t\tstring billOfExchange;\r\n\t\tstring billOfLading;\r\n\t\tbool initialized;\r\n\t}\r\n\r\n\t//contract mappings\r\n\tmapping (string => string) contracts;\r\n\tmapping (string => string) status; \r\n\tmapping (string => Docs) documents;\r\n\tmapping (string => string) amendments; \r\n\tmapping (string => string) insurance;\r\n\tmapping (string => bool) trustReceipt;\r\n\r\n\r\n\r\n\t//events\r\n\tevent LCCreated(string refNum, string contractValues);\r\n\tevent LCModified(string refNum, string contractValues);\r\n\tevent StatusChanged(string refNum, string contractStatus);\r\n\tevent DocumentsModified(string refNum, string contractDocuments);\r\n\tevent AmendmentsMade(string refNum, string amendValues);\r\n\t// event amendContract(string refNum, string amendmentReq);\r\n\r\n\r\n\r\n\t//adding new lc\r\n\tfunction createLC(string refNum, string contractJson) returns(bool set) {\r\n\t\tcontracts[refNum] = contractJson;\r\n\t\tstatus[refNum] = \"pending\";\r\n\t\tLCCreated(refNum, contractJson);\r\n\t\treturn true;\r\n\t} \r\n\r\n\t//modifying lc\r\n\tfunction modifyLC(string refNum, string contractJson ) returns(bool set) {\r\n\t\tcontracts[refNum] = contractJson;\r\n\t\tLCModified(refNum, contractJson);\r\n\t\treturn true;\r\n\t}\r\n\r\n\t//set lc status\r\n\tfunction setStatus(string refNum, string stat ) returns(bool changed) {\r\n\t\tstatus[refNum] = stat;\r\n\t\tStatusChanged(refNum, stat);\r\n\t\treturn true;\r\n\t}\r\n\r\n\t//get lc\r\n\tfunction getLC(string refNum) returns(string) {\r\n\t\treturn contracts[refNum];\r\n\t}\r\n\r\n\t//get lc status\r\n\tfunction getStatus(string refNum) returns(string) {\r\n\t\treturn status[refNum]; \r\n\t}\r\n\r\n\t//get Amendments\r\n\tfunction getAmendments(string refNum) returns(string) {\r\n\t\treturn amendments[refNum];\r\n\t}\r\n\r\n\t//set Amendments\r\n\tfunction amendLC(string refNum, string amendmentReq) returns(bool changed) {\r\n\t\tamendments[refNum] = amendmentReq;\r\n\t\tAmendmentsMade(refNum, amendmentReq);\r\n\t\treturn true;\r\n\t}\r\n\r\n\t//get Bill of Exchange\r\n\tfunction getBOE(string refNum) returns(string) {\r\n\t\treturn documents[refNum].billOfExchange;\r\n\t}\r\n\r\n\t//set Bill of Exchange\r\n\tfunction setBOE(string refNum, string BOEHash) returns(bool set) {\r\n\t\tdocuments[refNum].billOfExchange = BOEHash;\r\n\t\tDocumentsModified(refNum, BOEHash);\r\n\t\treturn true;\r\n\t}\r\n\t\r\n\t//get Bill of Lading\r\n\tfunction getBOL(string refNum) returns(string) {\r\n\t\treturn documents[refNum].billOfLading;\r\n\t}\r\n\r\n\t//set Bill of Lading\r\n\tfunction setBOL(string refNum, string BOLHash) returns(bool set) {\r\n\t\tdocuments[refNum].billOfLading = BOLHash;\r\n\t\tDocumentsModified(refNum, BOLHash);\r\n\t\treturn true;\r\n\t}\r\n\r\n\t//get insurance\r\n\tfunction getInsurance(string refNum) returns(string) {\r\n\t\treturn insurance[refNum];\r\n\t}\r\n\r\n\t//set insurance\r\n\tfunction setInsurance(string refNum, string insuranceString) returns(bool set) {\r\n\t\tinsurance[refNum] = insuranceString;\r\n\t\treturn true;\r\n\t}\r\n\r\n\t//get trust receipt\r\n\tfunction getTrustReceipt(string refNum) returns(bool) {\r\n\t\treturn trustReceipt[refNum];\r\n\t}\r\n\r\n\tfunction setTrustReceipt(string refNum, bool hasReceipt) returns(bool set) {\r\n\t\ttrustReceipt[refNum] = hasReceipt;\r\n\t\treturn true;\r\n\t}\r\n\r\n}\r\n",
  "sourcePath": "C:\\Users\\user\\Desktop\\ToffeeMint\\app\\0.TruffleApp\\contracts\\LetterOfCredit.sol",
  "compiler": {
    "name": "solc",
    "version": "0.4.18+commit.9cf6e910.Emscripten.clang"
  },
  "schemaVersion": "1.0.1",
  "updatedAt": "2018-02-08T01:21:05.301Z"
}